{
  "_format": "hh-sol-artifact-1",
  "contractName": "DiceVerseNFT",
  "sourceName": "contracts/DiceVerseNFT.sol",
  "abi": [
    {
      "inputs": [],
      "stateMutability": "payable",
      "type": "constructor"
    },
    {
      "anonymous": false,
      "inputs": [
        {
          "indexed": true,
          "internalType": "address",
          "name": "owner",
          "type": "address"
        },
        {
          "indexed": true,
          "internalType": "address",
          "name": "approved",
          "type": "address"
        },
        {
          "indexed": true,
          "internalType": "uint256",
          "name": "tokenId",
          "type": "uint256"
        }
      ],
      "name": "Approval",
      "type": "event"
    },
    {
      "anonymous": false,
      "inputs": [
        {
          "indexed": true,
          "internalType": "address",
          "name": "owner",
          "type": "address"
        },
        {
          "indexed": true,
          "internalType": "address",
          "name": "operator",
          "type": "address"
        },
        {
          "indexed": false,
          "internalType": "bool",
          "name": "approved",
          "type": "bool"
        }
      ],
      "name": "ApprovalForAll",
      "type": "event"
    },
    {
      "anonymous": false,
      "inputs": [
        {
          "indexed": true,
          "internalType": "address",
          "name": "previousOwner",
          "type": "address"
        },
        {
          "indexed": true,
          "internalType": "address",
          "name": "newOwner",
          "type": "address"
        }
      ],
      "name": "OwnershipTransferred",
      "type": "event"
    },
    {
      "anonymous": false,
      "inputs": [
        {
          "indexed": true,
          "internalType": "address",
          "name": "from",
          "type": "address"
        },
        {
          "indexed": true,
          "internalType": "address",
          "name": "to",
          "type": "address"
        },
        {
          "indexed": true,
          "internalType": "uint256",
          "name": "tokenId",
          "type": "uint256"
        }
      ],
      "name": "Transfer",
      "type": "event"
    },
    {
      "inputs": [
        {
          "internalType": "address",
          "name": "to",
          "type": "address"
        },
        {
          "internalType": "uint256",
          "name": "tokenId",
          "type": "uint256"
        }
      ],
      "name": "approve",
      "outputs": [],
      "stateMutability": "nonpayable",
      "type": "function"
    },
    {
      "inputs": [
        {
          "internalType": "address",
          "name": "owner",
          "type": "address"
        }
      ],
      "name": "balanceOf",
      "outputs": [
        {
          "internalType": "uint256",
          "name": "",
          "type": "uint256"
        }
      ],
      "stateMutability": "view",
      "type": "function"
    },
    {
      "inputs": [
        {
          "internalType": "uint256",
          "name": "tokenId",
          "type": "uint256"
        }
      ],
      "name": "getApproved",
      "outputs": [
        {
          "internalType": "address",
          "name": "",
          "type": "address"
        }
      ],
      "stateMutability": "view",
      "type": "function"
    },
    {
      "inputs": [
        {
          "internalType": "address",
          "name": "owner",
          "type": "address"
        },
        {
          "internalType": "address",
          "name": "operator",
          "type": "address"
        }
      ],
      "name": "isApprovedForAll",
      "outputs": [
        {
          "internalType": "bool",
          "name": "",
          "type": "bool"
        }
      ],
      "stateMutability": "view",
      "type": "function"
    },
    {
      "inputs": [],
      "name": "isPublicMintEnabled",
      "outputs": [
        {
          "internalType": "bool",
          "name": "",
          "type": "bool"
        }
      ],
      "stateMutability": "view",
      "type": "function"
    },
    {
      "inputs": [],
      "name": "maxPerWalletBalance",
      "outputs": [
        {
          "internalType": "uint256",
          "name": "",
          "type": "uint256"
        }
      ],
      "stateMutability": "view",
      "type": "function"
    },
    {
      "inputs": [],
      "name": "maxSupply",
      "outputs": [
        {
          "internalType": "uint256",
          "name": "",
          "type": "uint256"
        }
      ],
      "stateMutability": "view",
      "type": "function"
    },
    {
      "inputs": [],
      "name": "mintPrice",
      "outputs": [
        {
          "internalType": "uint256",
          "name": "",
          "type": "uint256"
        }
      ],
      "stateMutability": "view",
      "type": "function"
    },
    {
      "inputs": [
        {
          "internalType": "uint256",
          "name": "_quantity",
          "type": "uint256"
        }
      ],
      "name": "mintTime",
      "outputs": [],
      "stateMutability": "payable",
      "type": "function"
    },
    {
      "inputs": [],
      "name": "name",
      "outputs": [
        {
          "internalType": "string",
          "name": "",
          "type": "string"
        }
      ],
      "stateMutability": "view",
      "type": "function"
    },
    {
      "inputs": [],
      "name": "owner",
      "outputs": [
        {
          "internalType": "address",
          "name": "",
          "type": "address"
        }
      ],
      "stateMutability": "view",
      "type": "function"
    },
    {
      "inputs": [
        {
          "internalType": "uint256",
          "name": "tokenId",
          "type": "uint256"
        }
      ],
      "name": "ownerOf",
      "outputs": [
        {
          "internalType": "address",
          "name": "",
          "type": "address"
        }
      ],
      "stateMutability": "view",
      "type": "function"
    },
    {
      "inputs": [],
      "name": "renounceOwnership",
      "outputs": [],
      "stateMutability": "nonpayable",
      "type": "function"
    },
    {
      "inputs": [
        {
          "internalType": "address",
          "name": "from",
          "type": "address"
        },
        {
          "internalType": "address",
          "name": "to",
          "type": "address"
        },
        {
          "internalType": "uint256",
          "name": "tokenId",
          "type": "uint256"
        }
      ],
      "name": "safeTransferFrom",
      "outputs": [],
      "stateMutability": "nonpayable",
      "type": "function"
    },
    {
      "inputs": [
        {
          "internalType": "address",
          "name": "from",
          "type": "address"
        },
        {
          "internalType": "address",
          "name": "to",
          "type": "address"
        },
        {
          "internalType": "uint256",
          "name": "tokenId",
          "type": "uint256"
        },
        {
          "internalType": "bytes",
          "name": "data",
          "type": "bytes"
        }
      ],
      "name": "safeTransferFrom",
      "outputs": [],
      "stateMutability": "nonpayable",
      "type": "function"
    },
    {
      "inputs": [
        {
          "internalType": "address",
          "name": "operator",
          "type": "address"
        },
        {
          "internalType": "bool",
          "name": "approved",
          "type": "bool"
        }
      ],
      "name": "setApprovalForAll",
      "outputs": [],
      "stateMutability": "nonpayable",
      "type": "function"
    },
    {
      "inputs": [
        {
          "internalType": "string",
          "name": "_baseTokenUrl",
          "type": "string"
        }
      ],
      "name": "setBaseTokenUrl",
      "outputs": [],
      "stateMutability": "nonpayable",
      "type": "function"
    },
    {
      "inputs": [
        {
          "internalType": "bool",
          "name": "_isPublicMintEnabled",
          "type": "bool"
        }
      ],
      "name": "setIsPublicMintEnabled",
      "outputs": [],
      "stateMutability": "nonpayable",
      "type": "function"
    },
    {
      "inputs": [
        {
          "internalType": "bytes4",
          "name": "interfaceId",
          "type": "bytes4"
        }
      ],
      "name": "supportsInterface",
      "outputs": [
        {
          "internalType": "bool",
          "name": "",
          "type": "bool"
        }
      ],
      "stateMutability": "view",
      "type": "function"
    },
    {
      "inputs": [],
      "name": "symbol",
      "outputs": [
        {
          "internalType": "string",
          "name": "",
          "type": "string"
        }
      ],
      "stateMutability": "view",
      "type": "function"
    },
    {
      "inputs": [
        {
          "internalType": "uint256",
          "name": "tokenId",
          "type": "uint256"
        }
      ],
      "name": "tokenURI",
      "outputs": [
        {
          "internalType": "string",
          "name": "",
          "type": "string"
        }
      ],
      "stateMutability": "view",
      "type": "function"
    },
    {
      "inputs": [
        {
          "internalType": "uint256",
          "name": "_tokenId",
          "type": "uint256"
        }
      ],
      "name": "tokenUrl",
      "outputs": [
        {
          "internalType": "string",
          "name": "",
          "type": "string"
        }
      ],
      "stateMutability": "view",
      "type": "function"
    },
    {
      "inputs": [],
      "name": "totalSupply",
      "outputs": [
        {
          "internalType": "uint256",
          "name": "",
          "type": "uint256"
        }
      ],
      "stateMutability": "view",
      "type": "function"
    },
    {
      "inputs": [
        {
          "internalType": "address",
          "name": "from",
          "type": "address"
        },
        {
          "internalType": "address",
          "name": "to",
          "type": "address"
        },
        {
          "internalType": "uint256",
          "name": "tokenId",
          "type": "uint256"
        }
      ],
      "name": "transferFrom",
      "outputs": [],
      "stateMutability": "nonpayable",
      "type": "function"
    },
    {
      "inputs": [
        {
          "internalType": "address",
          "name": "newOwner",
          "type": "address"
        }
      ],
      "name": "transferOwnership",
      "outputs": [],
      "stateMutability": "nonpayable",
      "type": "function"
    },
    {
      "inputs": [
        {
          "internalType": "address",
          "name": "",
          "type": "address"
        }
      ],
      "name": "walletMintBalances",
      "outputs": [
        {
          "internalType": "uint256",
          "name": "",
          "type": "uint256"
        }
      ],
      "stateMutability": "view",
      "type": "function"
    },
    {
      "inputs": [],
      "name": "withdraw",
      "outputs": [],
      "stateMutability": "nonpayable",
      "type": "function"
    },
    {
      "inputs": [],
      "name": "withdrawWallet",
      "outputs": [
        {
          "internalType": "address payable",
          "name": "",
          "type": "address"
        }
      ],
      "stateMutability": "view",
      "type": "function"
    }
  ],
  "bytecode": "0x60806040526040518060400160405280600c81526020017f4469636556657273654e465400000000000000000000000000000000000000008152506040518060400160405280600281526020017f4456000000000000000000000000000000000000000000000000000000000000815250816000908051906020019062000088929190620001bf565b508060019080519060200190620000a1929190620001bf565b505050620000c4620000b8620000f160201b60201c565b620000f960201b60201c565b66470de4df82000060078190555060006009819055506103e86008819055506003600a81905550620002d4565b600033905090565b6000600660009054906101000a900473ffffffffffffffffffffffffffffffffffffffff16905081600660006101000a81548173ffffffffffffffffffffffffffffffffffffffff021916908373ffffffffffffffffffffffffffffffffffffffff1602179055508173ffffffffffffffffffffffffffffffffffffffff168173ffffffffffffffffffffffffffffffffffffffff167f8be0079c531659141344cd1fd0a4f28419497f9722a3daafe3b4186f6b6457e060405160405180910390a35050565b828054620001cd906200029e565b90600052602060002090601f016020900481019282620001f157600085556200023d565b82601f106200020c57805160ff19168380011785556200023d565b828001600101855582156200023d579182015b828111156200023c5782518255916020019190600101906200021f565b5b5090506200024c919062000250565b5090565b5b808211156200026b57600081600090555060010162000251565b5090565b7f4e487b7100000000000000000000000000000000000000000000000000000000600052602260045260246000fd5b60006002820490506001821680620002b757607f821691505b60208210811415620002ce57620002cd6200026f565b5b50919050565b61358a80620002e46000396000f3fe6080604052600436106101b75760003560e01c8063715018a6116100ec578063a22cb4651161008a578063d5abeb0111610064578063d5abeb011461060c578063e985e9c514610637578063f1c7f40e14610674578063f2fde38b14610690576101b7565b8063a22cb4651461057d578063b88d4fde146105a6578063c87b56dd146105cf576101b7565b80638da5cb5b116100c65780638da5cb5b146104bf57806395d89b41146104ea578063974d8bee14610515578063a05fd1a414610540576101b7565b8063715018a6146104545780637157de4b1461046b57806385d178f414610494576101b7565b80632373ac221161015957806342842e0e1161013357806342842e0e146103865780636352211e146103af5780636817c76c146103ec57806370a0823114610417576101b7565b80632373ac221461031d57806323b872dd146103465780633ccfd60b1461036f576101b7565b806306fdde031161019557806306fdde0314610261578063081812fc1461028c578063095ea7b3146102c957806318160ddd146102f2576101b7565b80630116bc2d146101bc57806301cd104f146101e757806301ffc9a714610224575b600080fd5b3480156101c857600080fd5b506101d16106b9565b6040516101de919061204d565b60405180910390f35b3480156101f357600080fd5b5061020e600480360381019061020991906120b2565b6106cc565b60405161021b9190612178565b60405180910390f35b34801561023057600080fd5b5061024b600480360381019061024691906121f2565b610748565b604051610258919061204d565b60405180910390f35b34801561026d57600080fd5b5061027661082a565b6040516102839190612178565b60405180910390f35b34801561029857600080fd5b506102b360048036038101906102ae91906120b2565b6108bc565b6040516102c09190612260565b60405180910390f35b3480156102d557600080fd5b506102f060048036038101906102eb91906122a7565b610902565b005b3480156102fe57600080fd5b50610307610a1a565b60405161031491906122f6565b60405180910390f35b34801561032957600080fd5b50610344600480360381019061033f919061233d565b610a20565b005b34801561035257600080fd5b5061036d6004803603810190610368919061236a565b610a45565b005b34801561037b57600080fd5b50610384610aa5565b005b34801561039257600080fd5b506103ad60048036038101906103a8919061236a565b610b7e565b005b3480156103bb57600080fd5b506103d660048036038101906103d191906120b2565b610b9e565b6040516103e39190612260565b60405180910390f35b3480156103f857600080fd5b50610401610c50565b60405161040e91906122f6565b60405180910390f35b34801561042357600080fd5b5061043e600480360381019061043991906123bd565b610c56565b60405161044b91906122f6565b60405180910390f35b34801561046057600080fd5b50610469610d0e565b005b34801561047757600080fd5b50610492600480360381019061048d919061244f565b610d22565b005b3480156104a057600080fd5b506104a9610d40565b6040516104b691906124bd565b60405180910390f35b3480156104cb57600080fd5b506104d4610d66565b6040516104e19190612260565b60405180910390f35b3480156104f657600080fd5b506104ff610d90565b60405161050c9190612178565b60405180910390f35b34801561052157600080fd5b5061052a610e22565b60405161053791906122f6565b60405180910390f35b34801561054c57600080fd5b50610567600480360381019061056291906123bd565b610e28565b60405161057491906122f6565b60405180910390f35b34801561058957600080fd5b506105a4600480360381019061059f91906124d8565b610e40565b005b3480156105b257600080fd5b506105cd60048036038101906105c89190612648565b610e56565b005b3480156105db57600080fd5b506105f660048036038101906105f191906120b2565b610eb8565b6040516106039190612178565b60405180910390f35b34801561061857600080fd5b50610621610f20565b60405161062e91906122f6565b60405180910390f35b34801561064357600080fd5b5061065e600480360381019061065991906126cb565b610f26565b60405161066b919061204d565b60405180910390f35b61068e600480360381019061068991906120b2565b610fba565b005b34801561069c57600080fd5b506106b760048036038101906106b291906123bd565b611191565b005b600b60009054906101000a900460ff1681565b60606106d782611215565b610716576040517f08c379a000000000000000000000000000000000000000000000000000000000815260040161070d90612757565b60405180910390fd5b600c61072183611281565b6040516020016107329291906128f4565b6040516020818303038152906040529050919050565b60007f80ac58cd000000000000000000000000000000000000000000000000000000007bffffffffffffffffffffffffffffffffffffffffffffffffffffffff1916827bffffffffffffffffffffffffffffffffffffffffffffffffffffffff1916148061081357507f5b5e139f000000000000000000000000000000000000000000000000000000007bffffffffffffffffffffffffffffffffffffffffffffffffffffffff1916827bffffffffffffffffffffffffffffffffffffffffffffffffffffffff1916145b806108235750610822826113e2565b5b9050919050565b606060008054610839906127a6565b80601f0160208091040260200160405190810160405280929190818152602001828054610865906127a6565b80156108b25780601f10610887576101008083540402835291602001916108b2565b820191906000526020600020905b81548152906001019060200180831161089557829003601f168201915b5050505050905090565b60006108c78261144c565b6004600083815260200190815260200160002060009054906101000a900473ffffffffffffffffffffffffffffffffffffffff169050919050565b600061090d82610b9e565b90508073ffffffffffffffffffffffffffffffffffffffff168373ffffffffffffffffffffffffffffffffffffffff16141561097e576040517f08c379a000000000000000000000000000000000000000000000000000000000815260040161097590612995565b60405180910390fd5b8073ffffffffffffffffffffffffffffffffffffffff1661099d611497565b73ffffffffffffffffffffffffffffffffffffffff1614806109cc57506109cb816109c6611497565b610f26565b5b610a0b576040517f08c379a0000000000000000000000000000000000000000000000000000000008152600401610a0290612a27565b60405180910390fd5b610a15838361149f565b505050565b60095481565b610a28611558565b80600b60006101000a81548160ff02191690831515021790555050565b610a56610a50611497565b826115d6565b610a95576040517f08c379a0000000000000000000000000000000000000000000000000000000008152600401610a8c90612ab9565b60405180910390fd5b610aa083838361166b565b505050565b610aad611558565b6000600d60009054906101000a900473ffffffffffffffffffffffffffffffffffffffff1673ffffffffffffffffffffffffffffffffffffffff1647604051610af590612b0a565b60006040518083038185875af1925050503d8060008114610b32576040519150601f19603f3d011682016040523d82523d6000602084013e610b37565b606091505b5050905080610b7b576040517f08c379a0000000000000000000000000000000000000000000000000000000008152600401610b7290612b6b565b60405180910390fd5b50565b610b9983838360405180602001604052806000815250610e56565b505050565b6000806002600084815260200190815260200160002060009054906101000a900473ffffffffffffffffffffffffffffffffffffffff169050600073ffffffffffffffffffffffffffffffffffffffff168173ffffffffffffffffffffffffffffffffffffffff161415610c47576040517f08c379a0000000000000000000000000000000000000000000000000000000008152600401610c3e90612bd7565b60405180910390fd5b80915050919050565b60075481565b60008073ffffffffffffffffffffffffffffffffffffffff168273ffffffffffffffffffffffffffffffffffffffff161415610cc7576040517f08c379a0000000000000000000000000000000000000000000000000000000008152600401610cbe90612c69565b60405180910390fd5b600360008373ffffffffffffffffffffffffffffffffffffffff1673ffffffffffffffffffffffffffffffffffffffff168152602001908152602001600020549050919050565b610d16611558565b610d2060006118d2565b565b610d2a611558565b8181600c9190610d3b929190611f8f565b505050565b600d60009054906101000a900473ffffffffffffffffffffffffffffffffffffffff1681565b6000600660009054906101000a900473ffffffffffffffffffffffffffffffffffffffff16905090565b606060018054610d9f906127a6565b80601f0160208091040260200160405190810160405280929190818152602001828054610dcb906127a6565b8015610e185780601f10610ded57610100808354040283529160200191610e18565b820191906000526020600020905b815481529060010190602001808311610dfb57829003601f168201915b5050505050905090565b600a5481565b600e6020528060005260406000206000915090505481565b610e52610e4b611497565b8383611998565b5050565b610e67610e61611497565b836115d6565b610ea6576040517f08c379a0000000000000000000000000000000000000000000000000000000008152600401610e9d90612ab9565b60405180910390fd5b610eb284848484611b05565b50505050565b6060610ec38261144c565b6000610ecd611b61565b90506000815111610eed5760405180602001604052806000815250610f18565b80610ef784611281565b604051602001610f08929190612c89565b6040516020818303038152906040525b915050919050565b60085481565b6000600560008473ffffffffffffffffffffffffffffffffffffffff1673ffffffffffffffffffffffffffffffffffffffff16815260200190815260200160002060008373ffffffffffffffffffffffffffffffffffffffff1673ffffffffffffffffffffffffffffffffffffffff16815260200190815260200160002060009054906101000a900460ff16905092915050565b600b60009054906101000a900460ff16611009576040517f08c379a000000000000000000000000000000000000000000000000000000000815260040161100090612cf9565b60405180910390fd5b600754816110179190612d48565b3414611058576040517f08c379a000000000000000000000000000000000000000000000000000000000815260040161104f90612dee565b60405180910390fd5b600854816009546110699190612e0e565b11156110aa576040517f08c379a00000000000000000000000000000000000000000000000000000000081526004016110a190612eb0565b60405180910390fd5b600a5481600e60003373ffffffffffffffffffffffffffffffffffffffff1673ffffffffffffffffffffffffffffffffffffffff168152602001908152602001600020546110f89190612e0e565b1115611139576040517f08c379a000000000000000000000000000000000000000000000000000000000815260040161113090612f1c565b60405180910390fd5b60005b8181101561118d57600060016009546111559190612e0e565b90506009600081548092919061116a90612f3c565b91905055506111793382611b78565b50808061118590612f3c565b91505061113c565b5050565b611199611558565b600073ffffffffffffffffffffffffffffffffffffffff168173ffffffffffffffffffffffffffffffffffffffff161415611209576040517f08c379a000000000000000000000000000000000000000000000000000000000815260040161120090612ff7565b60405180910390fd5b611212816118d2565b50565b60008073ffffffffffffffffffffffffffffffffffffffff166002600084815260200190815260200160002060009054906101000a900473ffffffffffffffffffffffffffffffffffffffff1673ffffffffffffffffffffffffffffffffffffffff1614159050919050565b606060008214156112c9576040518060400160405280600181526020017f300000000000000000000000000000000000000000000000000000000000000081525090506113dd565b600082905060005b600082146112fb5780806112e490612f3c565b915050600a826112f49190613046565b91506112d1565b60008167ffffffffffffffff8111156113175761131661251d565b5b6040519080825280601f01601f1916602001820160405280156113495781602001600182028036833780820191505090505b5090505b600085146113d6576001826113629190613077565b9150600a8561137191906130ab565b603061137d9190612e0e565b60f81b818381518110611393576113926130dc565b5b60200101907effffffffffffffffffffffffffffffffffffffffffffffffffffffffffffff1916908160001a905350600a856113cf9190613046565b945061134d565b8093505050505b919050565b60007f01ffc9a7000000000000000000000000000000000000000000000000000000007bffffffffffffffffffffffffffffffffffffffffffffffffffffffff1916827bffffffffffffffffffffffffffffffffffffffffffffffffffffffff1916149050919050565b61145581611215565b611494576040517f08c379a000000000000000000000000000000000000000000000000000000000815260040161148b90612bd7565b60405180910390fd5b50565b600033905090565b816004600083815260200190815260200160002060006101000a81548173ffffffffffffffffffffffffffffffffffffffff021916908373ffffffffffffffffffffffffffffffffffffffff160217905550808273ffffffffffffffffffffffffffffffffffffffff1661151283610b9e565b73ffffffffffffffffffffffffffffffffffffffff167f8c5be1e5ebec7d5bd14f71427d1e84f3dd0314c0f7b2291e5b200ac8c7c3b92560405160405180910390a45050565b611560611497565b73ffffffffffffffffffffffffffffffffffffffff1661157e610d66565b73ffffffffffffffffffffffffffffffffffffffff16146115d4576040517f08c379a00000000000000000000000000000000000000000000000000000000081526004016115cb90613157565b60405180910390fd5b565b6000806115e283610b9e565b90508073ffffffffffffffffffffffffffffffffffffffff168473ffffffffffffffffffffffffffffffffffffffff16148061162457506116238185610f26565b5b8061166257508373ffffffffffffffffffffffffffffffffffffffff1661164a846108bc565b73ffffffffffffffffffffffffffffffffffffffff16145b91505092915050565b8273ffffffffffffffffffffffffffffffffffffffff1661168b82610b9e565b73ffffffffffffffffffffffffffffffffffffffff16146116e1576040517f08c379a00000000000000000000000000000000000000000000000000000000081526004016116d8906131e9565b60405180910390fd5b600073ffffffffffffffffffffffffffffffffffffffff168273ffffffffffffffffffffffffffffffffffffffff161415611751576040517f08c379a00000000000000000000000000000000000000000000000000000000081526004016117489061327b565b60405180910390fd5b61175c838383611b96565b61176760008261149f565b6001600360008573ffffffffffffffffffffffffffffffffffffffff1673ffffffffffffffffffffffffffffffffffffffff16815260200190815260200160002060008282546117b79190613077565b925050819055506001600360008473ffffffffffffffffffffffffffffffffffffffff1673ffffffffffffffffffffffffffffffffffffffff168152602001908152602001600020600082825461180e9190612e0e565b92505081905550816002600083815260200190815260200160002060006101000a81548173ffffffffffffffffffffffffffffffffffffffff021916908373ffffffffffffffffffffffffffffffffffffffff160217905550808273ffffffffffffffffffffffffffffffffffffffff168473ffffffffffffffffffffffffffffffffffffffff167fddf252ad1be2c89b69c2b068fc378daa952ba7f163c4a11628f55a4df523b3ef60405160405180910390a46118cd838383611b9b565b505050565b6000600660009054906101000a900473ffffffffffffffffffffffffffffffffffffffff16905081600660006101000a81548173ffffffffffffffffffffffffffffffffffffffff021916908373ffffffffffffffffffffffffffffffffffffffff1602179055508173ffffffffffffffffffffffffffffffffffffffff168173ffffffffffffffffffffffffffffffffffffffff167f8be0079c531659141344cd1fd0a4f28419497f9722a3daafe3b4186f6b6457e060405160405180910390a35050565b8173ffffffffffffffffffffffffffffffffffffffff168373ffffffffffffffffffffffffffffffffffffffff161415611a07576040517f08c379a00000000000000000000000000000000000000000000000000000000081526004016119fe906132e7565b60405180910390fd5b80600560008573ffffffffffffffffffffffffffffffffffffffff1673ffffffffffffffffffffffffffffffffffffffff16815260200190815260200160002060008473ffffffffffffffffffffffffffffffffffffffff1673ffffffffffffffffffffffffffffffffffffffff16815260200190815260200160002060006101000a81548160ff0219169083151502179055508173ffffffffffffffffffffffffffffffffffffffff168373ffffffffffffffffffffffffffffffffffffffff167f17307eab39ab6107e8899845ad3d59bd9653f200f220920489ca2b5937696c3183604051611af8919061204d565b60405180910390a3505050565b611b1084848461166b565b611b1c84848484611ba0565b611b5b576040517f08c379a0000000000000000000000000000000000000000000000000000000008152600401611b5290613379565b60405180910390fd5b50505050565b606060405180602001604052806000815250905090565b611b92828260405180602001604052806000815250611d37565b5050565b505050565b505050565b6000611bc18473ffffffffffffffffffffffffffffffffffffffff16611d92565b15611d2a578373ffffffffffffffffffffffffffffffffffffffff1663150b7a02611bea611497565b8786866040518563ffffffff1660e01b8152600401611c0c94939291906133ee565b602060405180830381600087803b158015611c2657600080fd5b505af1925050508015611c5757506040513d601f19601f82011682018060405250810190611c54919061344f565b60015b611cda573d8060008114611c87576040519150601f19603f3d011682016040523d82523d6000602084013e611c8c565b606091505b50600081511415611cd2576040517f08c379a0000000000000000000000000000000000000000000000000000000008152600401611cc990613379565b60405180910390fd5b805181602001fd5b63150b7a0260e01b7bffffffffffffffffffffffffffffffffffffffffffffffffffffffff1916817bffffffffffffffffffffffffffffffffffffffffffffffffffffffff191614915050611d2f565b600190505b949350505050565b611d418383611db5565b611d4e6000848484611ba0565b611d8d576040517f08c379a0000000000000000000000000000000000000000000000000000000008152600401611d8490613379565b60405180910390fd5b505050565b6000808273ffffffffffffffffffffffffffffffffffffffff163b119050919050565b600073ffffffffffffffffffffffffffffffffffffffff168273ffffffffffffffffffffffffffffffffffffffff161415611e25576040517f08c379a0000000000000000000000000000000000000000000000000000000008152600401611e1c906134c8565b60405180910390fd5b611e2e81611215565b15611e6e576040517f08c379a0000000000000000000000000000000000000000000000000000000008152600401611e6590613534565b60405180910390fd5b611e7a60008383611b96565b6001600360008473ffffffffffffffffffffffffffffffffffffffff1673ffffffffffffffffffffffffffffffffffffffff1681526020019081526020016000206000828254611eca9190612e0e565b92505081905550816002600083815260200190815260200160002060006101000a81548173ffffffffffffffffffffffffffffffffffffffff021916908373ffffffffffffffffffffffffffffffffffffffff160217905550808273ffffffffffffffffffffffffffffffffffffffff16600073ffffffffffffffffffffffffffffffffffffffff167fddf252ad1be2c89b69c2b068fc378daa952ba7f163c4a11628f55a4df523b3ef60405160405180910390a4611f8b60008383611b9b565b5050565b828054611f9b906127a6565b90600052602060002090601f016020900481019282611fbd5760008555612004565b82601f10611fd657803560ff1916838001178555612004565b82800160010185558215612004579182015b82811115612003578235825591602001919060010190611fe8565b5b5090506120119190612015565b5090565b5b8082111561202e576000816000905550600101612016565b5090565b60008115159050919050565b61204781612032565b82525050565b6000602082019050612062600083018461203e565b92915050565b6000604051905090565b600080fd5b600080fd5b6000819050919050565b61208f8161207c565b811461209a57600080fd5b50565b6000813590506120ac81612086565b92915050565b6000602082840312156120c8576120c7612072565b5b60006120d68482850161209d565b91505092915050565b600081519050919050565b600082825260208201905092915050565b60005b838110156121195780820151818401526020810190506120fe565b83811115612128576000848401525b50505050565b6000601f19601f8301169050919050565b600061214a826120df565b61215481856120ea565b93506121648185602086016120fb565b61216d8161212e565b840191505092915050565b60006020820190508181036000830152612192818461213f565b905092915050565b60007fffffffff0000000000000000000000000000000000000000000000000000000082169050919050565b6121cf8161219a565b81146121da57600080fd5b50565b6000813590506121ec816121c6565b92915050565b60006020828403121561220857612207612072565b5b6000612216848285016121dd565b91505092915050565b600073ffffffffffffffffffffffffffffffffffffffff82169050919050565b600061224a8261221f565b9050919050565b61225a8161223f565b82525050565b60006020820190506122756000830184612251565b92915050565b6122848161223f565b811461228f57600080fd5b50565b6000813590506122a18161227b565b92915050565b600080604083850312156122be576122bd612072565b5b60006122cc85828601612292565b92505060206122dd8582860161209d565b9150509250929050565b6122f08161207c565b82525050565b600060208201905061230b60008301846122e7565b92915050565b61231a81612032565b811461232557600080fd5b50565b60008135905061233781612311565b92915050565b60006020828403121561235357612352612072565b5b600061236184828501612328565b91505092915050565b60008060006060848603121561238357612382612072565b5b600061239186828701612292565b93505060206123a286828701612292565b92505060406123b38682870161209d565b9150509250925092565b6000602082840312156123d3576123d2612072565b5b60006123e184828501612292565b91505092915050565b600080fd5b600080fd5b600080fd5b60008083601f84011261240f5761240e6123ea565b5b8235905067ffffffffffffffff81111561242c5761242b6123ef565b5b602083019150836001820283011115612448576124476123f4565b5b9250929050565b6000806020838503121561246657612465612072565b5b600083013567ffffffffffffffff81111561248457612483612077565b5b612490858286016123f9565b92509250509250929050565b60006124a78261221f565b9050919050565b6124b78161249c565b82525050565b60006020820190506124d260008301846124ae565b92915050565b600080604083850312156124ef576124ee612072565b5b60006124fd85828601612292565b925050602061250e85828601612328565b9150509250929050565b600080fd5b7f4e487b7100000000000000000000000000000000000000000000000000000000600052604160045260246000fd5b6125558261212e565b810181811067ffffffffffffffff821117156125745761257361251d565b5b80604052505050565b6000612587612068565b9050612593828261254c565b919050565b600067ffffffffffffffff8211156125b3576125b261251d565b5b6125bc8261212e565b9050602081019050919050565b82818337600083830152505050565b60006125eb6125e684612598565b61257d565b90508281526020810184848401111561260757612606612518565b5b6126128482856125c9565b509392505050565b600082601f83011261262f5761262e6123ea565b5b813561263f8482602086016125d8565b91505092915050565b6000806000806080858703121561266257612661612072565b5b600061267087828801612292565b945050602061268187828801612292565b93505060406126928782880161209d565b925050606085013567ffffffffffffffff8111156126b3576126b2612077565b5b6126bf8782880161261a565b91505092959194509250565b600080604083850312156126e2576126e1612072565b5b60006126f085828601612292565b925050602061270185828601612292565b9150509250929050565b7f546f6b656e20646f6573206e6f74206578697374210000000000000000000000600082015250565b60006127416015836120ea565b915061274c8261270b565b602082019050919050565b6000602082019050818103600083015261277081612734565b9050919050565b7f4e487b7100000000000000000000000000000000000000000000000000000000600052602260045260246000fd5b600060028204905060018216806127be57607f821691505b602082108114156127d2576127d1612777565b5b50919050565b600081905092915050565b60008190508160005260206000209050919050565b60008154612805816127a6565b61280f81866127d8565b9450600182166000811461282a576001811461283b5761286e565b60ff1983168652818601935061286e565b612844856127e3565b60005b8381101561286657815481890152600182019150602081019050612847565b838801955050505b50505092915050565b6000612882826120df565b61288c81856127d8565b935061289c8185602086016120fb565b80840191505092915050565b7f2e6a736f6e000000000000000000000000000000000000000000000000000000600082015250565b60006128de6005836127d8565b91506128e9826128a8565b600582019050919050565b600061290082856127f8565b915061290c8284612877565b9150612917826128d1565b91508190509392505050565b7f4552433732313a20617070726f76616c20746f2063757272656e74206f776e6560008201527f7200000000000000000000000000000000000000000000000000000000000000602082015250565b600061297f6021836120ea565b915061298a82612923565b604082019050919050565b600060208201905081810360008301526129ae81612972565b9050919050565b7f4552433732313a20617070726f76652063616c6c6572206973206e6f7420746f60008201527f6b656e206f776e6572206e6f7220617070726f76656420666f7220616c6c0000602082015250565b6000612a11603e836120ea565b9150612a1c826129b5565b604082019050919050565b60006020820190508181036000830152612a4081612a04565b9050919050565b7f4552433732313a2063616c6c6572206973206e6f7420746f6b656e206f776e6560008201527f72206e6f7220617070726f766564000000000000000000000000000000000000602082015250565b6000612aa3602e836120ea565b9150612aae82612a47565b604082019050919050565b60006020820190508181036000830152612ad281612a96565b9050919050565b600081905092915050565b50565b6000612af4600083612ad9565b9150612aff82612ae4565b600082019050919050565b6000612b1582612ae7565b9150819050919050565b7f796f7572207769746864726177206973206661696c6564000000000000000000600082015250565b6000612b556017836120ea565b9150612b6082612b1f565b602082019050919050565b60006020820190508181036000830152612b8481612b48565b9050919050565b7f4552433732313a20696e76616c696420746f6b656e2049440000000000000000600082015250565b6000612bc16018836120ea565b9150612bcc82612b8b565b602082019050919050565b60006020820190508181036000830152612bf081612bb4565b9050919050565b7f4552433732313a2061646472657373207a65726f206973206e6f74206120766160008201527f6c6964206f776e65720000000000000000000000000000000000000000000000602082015250565b6000612c536029836120ea565b9150612c5e82612bf7565b604082019050919050565b60006020820190508181036000830152612c8281612c46565b9050919050565b6000612c958285612877565b9150612ca18284612877565b91508190509392505050565b7f796f7572206d696e74696e67206973206e6f7420656e61626c65640000000000600082015250565b6000612ce3601b836120ea565b9150612cee82612cad565b602082019050919050565b60006020820190508181036000830152612d1281612cd6565b9050919050565b7f4e487b7100000000000000000000000000000000000000000000000000000000600052601160045260246000fd5b6000612d538261207c565b9150612d5e8361207c565b9250817fffffffffffffffffffffffffffffffffffffffffffffffffffffffffffffffff0483118215151615612d9757612d96612d19565b5b828202905092915050565b7f596f7520656e7465722077726f6e67206d696e742076616c7565000000000000600082015250565b6000612dd8601a836120ea565b9150612de382612da2565b602082019050919050565b60006020820190508181036000830152612e0781612dcb565b9050919050565b6000612e198261207c565b9150612e248361207c565b9250827fffffffffffffffffffffffffffffffffffffffffffffffffffffffffffffffff03821115612e5957612e58612d19565b5b828201905092915050565b7f697420697320736f6c64206f7574000000000000000000000000000000000000600082015250565b6000612e9a600e836120ea565b9150612ea582612e64565b602082019050919050565b60006020820190508181036000830152612ec981612e8d565b9050919050565b7f697420657863656564206d61782077616c6c65742062616c616e636500000000600082015250565b6000612f06601c836120ea565b9150612f1182612ed0565b602082019050919050565b60006020820190508181036000830152612f3581612ef9565b9050919050565b6000612f478261207c565b91507fffffffffffffffffffffffffffffffffffffffffffffffffffffffffffffffff821415612f7a57612f79612d19565b5b600182019050919050565b7f4f776e61626c653a206e6577206f776e657220697320746865207a65726f206160008201527f6464726573730000000000000000000000000000000000000000000000000000602082015250565b6000612fe16026836120ea565b9150612fec82612f85565b604082019050919050565b6000602082019050818103600083015261301081612fd4565b9050919050565b7f4e487b7100000000000000000000000000000000000000000000000000000000600052601260045260246000fd5b60006130518261207c565b915061305c8361207c565b92508261306c5761306b613017565b5b828204905092915050565b60006130828261207c565b915061308d8361207c565b9250828210156130a05761309f612d19565b5b828203905092915050565b60006130b68261207c565b91506130c18361207c565b9250826130d1576130d0613017565b5b828206905092915050565b7f4e487b7100000000000000000000000000000000000000000000000000000000600052603260045260246000fd5b7f4f776e61626c653a2063616c6c6572206973206e6f7420746865206f776e6572600082015250565b60006131416020836120ea565b915061314c8261310b565b602082019050919050565b6000602082019050818103600083015261317081613134565b9050919050565b7f4552433732313a207472616e736665722066726f6d20696e636f72726563742060008201527f6f776e6572000000000000000000000000000000000000000000000000000000602082015250565b60006131d36025836120ea565b91506131de82613177565b604082019050919050565b60006020820190508181036000830152613202816131c6565b9050919050565b7f4552433732313a207472616e7366657220746f20746865207a65726f2061646460008201527f7265737300000000000000000000000000000000000000000000000000000000602082015250565b60006132656024836120ea565b915061327082613209565b604082019050919050565b6000602082019050818103600083015261329481613258565b9050919050565b7f4552433732313a20617070726f766520746f2063616c6c657200000000000000600082015250565b60006132d16019836120ea565b91506132dc8261329b565b602082019050919050565b60006020820190508181036000830152613300816132c4565b9050919050565b7f4552433732313a207472616e7366657220746f206e6f6e20455243373231526560008201527f63656976657220696d706c656d656e7465720000000000000000000000000000602082015250565b60006133636032836120ea565b915061336e82613307565b604082019050919050565b6000602082019050818103600083015261339281613356565b9050919050565b600081519050919050565b600082825260208201905092915050565b60006133c082613399565b6133ca81856133a4565b93506133da8185602086016120fb565b6133e38161212e565b840191505092915050565b60006080820190506134036000830187612251565b6134106020830186612251565b61341d60408301856122e7565b818103606083015261342f81846133b5565b905095945050505050565b600081519050613449816121c6565b92915050565b60006020828403121561346557613464612072565b5b60006134738482850161343a565b91505092915050565b7f4552433732313a206d696e7420746f20746865207a65726f2061646472657373600082015250565b60006134b26020836120ea565b91506134bd8261347c565b602082019050919050565b600060208201905081810360008301526134e1816134a5565b9050919050565b7f4552433732313a20746f6b656e20616c7265616479206d696e74656400000000600082015250565b600061351e601c836120ea565b9150613529826134e8565b602082019050919050565b6000602082019050818103600083015261354d81613511565b905091905056fea2646970667358221220fbef3a04e5f9284f7432c3b390ee00846813e215f2b7d92e3b24515779bd01bc64736f6c63430008090033",
  "linkReferences": {},
  "deployedLinkReferences": {}
}